:100000000C9434000C9451000C9451000C94840214
:100010000C9451000C9451000C9451000C9451001C
:100020000C9451000C9451000C9451000C9451000C
:100030000C9451000C9451000C9451000C945100FC
:100040000C9451000C9451000C9451000C945100EC
:100050000C9451000C9451000C9451000C945100DC
:100060000C9451000C94510011241FBECFEFD8E026
:10007000DEBFCDBF11E0A0E0B1E0E4EDF6E002C0EC
:1000800005900D92A435B107D9F721E0A4E5B1E0C0
:1000900001C01D92A938B207E1F70E9457030C94E2
:1000A00068030C940000CF93DF93CDB7DEB727979A
:1000B0000FB6F894DEBF0FBECDBF29812F67206831
:1000C0003A813F6730688F814FEF5EEF6EEF7EEFD2
:1000D0008E7F90E027960FB6F894DEBF0FBECDBF9F
:1000E000DF91CF910895CF93DF93CDB7DEB72E97F1
:1000F0000FB6F894DEBF0FBECDBF0E945300288715
:1001000039874A875B876C877D878E8787E0FE010A
:100110003896DE01119601900D928A95E1F72981BA
:100120003A814B815C816D817E818F8190E02E963A
:100130000FB6F894DEBF0FBECDBFDF91CF9108950B
:10014000FC018FEF80935C01818180935D018AE5E2
:1001500080935E01838180935F018481809360013D
:10016000858180936101868180936201878180937C
:1001700063018085809364010895FC018FEF809373
:1001800071018181809372018AE58093730183817B
:1001900080937401848180937501858180937601B9
:1001A0008681809377018781809378018085809311
:1001B00079010895CF93DF93CDB7DEB7AA970FB635
:1001C000F894DEBF0FBECDBF259A2D9A22982A9AA9
:1001D00023982B9A249A2C9A2098289A8CB5886078
:1001E0008CBD8CB584608CBD8CB58F7E8CBD8CB580
:1001F00080628CBD8CB580648CBD9FEF9EBD1092DB
:1002000057011092550110928701109256011092D9
:10021000860185E1809354018093580189E780939A
:100220005901109288019E8B8F8B8AE5888F89B146
:10023000898F86B18A8F8FE78B8F8C8F8D8F8E8F72
:100240001F8E18A219A21AA21BA21CA21DA21EA2D6
:100250001FA218A619A61AA6CE0146960E94A000B3
:1002600085E1EFE3F1E0DE01119601900D928A95B0
:10027000E1F7CE0101960E94BD0081E080936B0002
:10028000E8E6F0E08081816080837894AA960FB6DA
:10029000F894DEBF0FBECDBFDF91CF9108950DB4AE
:1002A00007FC07C01A9BFBCF1EBC1092550180E0D3
:1002B00008958EB508950DB407FC07C01A9BFBCFB7
:1002C0001EBC1092550180E0089581E008952D989C
:1002D000E0915501EF5FE0935501FF27E7FDF095B1
:1002E000E45AFE4F80818EBD2D9A0895E09155010C
:1002F000EF5FE0935501FF27E7FDF095E45AFE4FCD
:1003000080818EBD08950E944F01809357011A9BF2
:1003100002C01EBC1CC0E0915501E1111BC0813020
:10032000B1F480918801813029F483EF80935D01DD
:1003300089E006C08091590180935D01809154014C
:1003400080935801B4C0821793070CF4DCC010925C
:1003500055010895E13019F480938601A8C0E23078
:10036000C1F480918601813471F580915901813405
:1003700039F410925F0110926001109261015BC02C
:100380008FEF80935F018093600183E08093610130
:1003900087C0E33009F08DC090918601933441F419
:1003A000813019F48093880182C0109288017FC047
:1003B0009434E9F40E94670189E78093590185E14B
:1003C000809354010895853469F483E080935F013C
:1003D000E093600181E080936101E093620180938A
:1003E00063012DC08634F9F410925F0160C0963429
:1003F00061F581110BC0109260011092610182E0E1
:1004000080936201109263018AE04FC0813009F04D
:100410004EC0109260011092610110926201109220
:10042000630184E142C0873469F410925F01109245
:100430006001E093610110926201109263011092D9
:10044000640135C08C34A9F4CFCF9C34A1F581115F
:1004500008C0109260011092610184E080936201F3
:10046000ECCF813021F5109260011092610186E09D
:10047000F5CF8D3469F410925F0181E080936001C3
:100480008FEF8093610180936201809363010DC0BF
:100490008F3489F410925F01109260011092610113
:1004A00010926201109263018AE5809364010C94BA
:1004B0006701E23044F18E2F992787FD90952091B6
:1004C000580130E0A90141505109841795075CF4A7
:1004D000EF5FE0935501FF27E7FDF095E45AFE4FEB
:1004E00080812D980DC08417950709F02CCFEF5F00
:1004F000E0935501FF27E7FDF095E45AFE4F808118
:100500008EBD2D9A089508951F920F920FB60F92E7
:1005100011242F933F934F935F936F937F938F9308
:100520009F93AF93BF93EF93FF93109255018FEF7B
:100530008EBD1A9903C00E948301FBCFFF91EF91FA
:10054000BF91AF919F918F917F916F915F914F91EB
:100550003F912F910F900FBE0F901F901895CF9342
:10056000DF93CDB7DEB727970FB6F894DEBF0FBE87
:10057000CDBF4B835C836D837E838F8332FB882763
:1005800080F991E0892726FD02C052E001C050E0C9
:10059000852B31FD02C054E001C050E0582B33FDE3
:1005A00002C048E001C040E0952F942B36FD02C008
:1005B00040E101C040E0942B832F8095881F88275D
:1005C000881F8295880F807E982B4B8140FD02C04A
:1005D00080E401C080E0982B35FD02C080E801C0B6
:1005E00080E0892B80935F0125FB882780F991E0CB
:1005F000892730FF02C090E001C092E0982B24FDD3
:1006000002C034E001C030E0932B822F8095881F18
:100610008827881F880F880F880F982B20FD02C01D
:1006200050E101C050E0952B21FD02C050E201C015
:1006300050E0592B23FD02C030E401C030E0352BDF
:1006400022FF02C080E001C080E8832B809360011C
:100650002D81322F36958E81982F979599279795D2
:10066000932B90936101982F96958F81879588277A
:100670008795892B8093620146958C81982F979559
:1006800099279795942B90936301982F9695822F95
:10069000879588278795892B8093640127960FB6C5
:1006A000F894DEBF0FBECDBFDF91CF910895CF93F9
:1006B000DF93CDB7DEB727970FB6F894DEBF0FBE36
:1006C000CDBF0E94DA000E9473000E94AF02FBCFF0
:0406D000F894FFCFCC
:1006D400FF795A11A57F7F7F7F0000000000000092
:1006E4000000000000FF795A11A57F7F7F7F000082
:1006F40000000000000000000000FF795A11A57FEF
:100704007F7F7F000000000000000000000000FF69
:10071400F35AFFFFFFFFFFFFFFFFFFFFFFFFFFFF96
:04072400FFFFFFFFD5
:00000001FF
